:100000000C9447050C9407160C94E0150C946F059E
:100010000C946F050C946F050C946F050C946F0590
:100020000C946F050C946F050C946F050C946F0580
:100030000C946F050C946F050C946F050C946F0570
:100040000C9496150C946F050C946F050C946F0529
:100050000C946F050C946F050C946F050C946F0550
:100060000C942E160C946F052200FF210000000056
:1000700000003E5B4F5B3E3E6B4F6B3E1C3E7C3E4A
:100080001C183C7E3C181C577D571C1C5E7F5E1C58
:1000900000183C1800FFE7C3E7FF0018241800FF12
:1000A000E7DBE7FF30483A060E2629792926407F0C
:1000B000050507407F05253F5A3CE73C5A7F3E1C1B
:1000C0001C08081C1C3E7F14227F22145F5F005F07
:1000D0005F06097F017F006689956A6060606060E5
:1000E00094A2FFA29408047E040810207E20100829
:1000F000082A1C08081C2A08081E101010100C1EC4
:100100000C1E0C30383E3830060E3E0E0600000045
:10011000000000005F00000007000700147F147F4C
:1001200014242A7F2A122313086462364956205069
:100130000008070300001C2241000041221C002A85
:100140001C7F1C2A08083E08080080703000080840
:10015000080808000060600020100804023E5149B1
:10016000453E00427F400072494949462141494D80
:10017000331814127F1027454545393C4A49493107
:1001800041211109073649494936464949291E0086
:100190000014000000403400000008142241141430
:1001A000141414004122140802015909063E415D4D
:1001B000594E7C1211127C7F494949363E414141DA
:1001C000227F4141413E7F494949417F0909090157
:1001D0003E414151737F0808087F00417F41002064
:1001E00040413F017F081422417F404040407F0250
:1001F0001C027F7F0408107F3E4141413E7F090978
:1002000009063E4151215E7F09192946264949497F
:100210003203017F01033F4040403F1F2040201F29
:100220003F4038403F6314081463030478040361BB
:1002300059494D43007F41414102040810200041CB
:1002400041417F0402010204404040404000030756
:10025000080020545478407F2844443838444444AB
:1002600028384444287F385454541800087E090222
:1002700018A4A49C787F0804047800447D400020E2
:1002800040403D007F1028440000417F40007C0436
:100290007804787C080404783844444438FC1824F2
:1002A000241818242418FC7C0804040848545454C6
:1002B0002404043F44243C4040207C1C2040201C5B
:1002C0003C4030403C44281028444C9090907C4462
:1002D00064544C440008364100000077000000419F
:1002E00036080002010204023C2623263C1EA1A17E
:1002F00061123A4040207A38545455592155557965
:100300004122545478422155547840205455794024
:100310000C1E527212395555555939545454593985
:10032000555454580000457C410002457D4200016F
:10033000457C407D1211127DF0282528F07C545513
:1003400045002054547C547C0A097F49324949496C
:10035000323A4444443A324A4848303A4141217A98
:100360003A42402078009DA0A07D3D4242423D3D62
:100370004040403D3C24FF2424487E4943662B2FC7
:10038000FC2F2BFF0929F620C0887E090320545436
:1003900079410000447D413048484A32384040228B
:1003A0007A007A0A0A727D0D19317D2629292F28B3
:1003B000262929292630484D4020380808080808F1
:1003C000080808382F10C8ACBA2F102834FA0000DB
:1003D0007B000008142A142222142A140855005500
:1003E0000055AA55AA55AAFF55FF55FF000000FF6A
:1003F00000101010FF00141414FF001010FF00FF75
:100400001010F010F0141414FC001414F700FF0086
:1004100000FF00FF1414F404FC141417101F101034
:100420001F101F1414141F00101010F00000000003
:100430001F101010101F10101010F010000000FFFF
:10044000101010101010101010FF10000000FF14FA
:100450000000FF00FF00001F10170000FC04F41450
:10046000141710171414F404F40000FF00F7141408
:100470001414141414F700F7141414171410101F84
:10048000101F141414F4141010F010F000001F10BA
:100490001F0000001F14000000FC140000F010F00A
:1004A0001010FF10FF141414FF141010101F000080
:1004B0000000F010FFFFFFFFFFF0F0F0F0F0FFFF93
:1004C000FF0000000000FFFF0F0F0F0F0F38444424
:1004D0003844FC4A4A4A347E02020606027E027E04
:1004E0000263554941633844443C04407E201E2049
:1004F00006027E020299A5E7A5991C2A492A1C4CEE
:100500007201724C304A4D4D303048784830BC62F0
:100510005A463D3E494949007E0101017E2A2A2A68
:100520002A2A44445F444440514A444040444A518A
:10053000400000FF0103E080FF000008086B6B082B
:100540003612362436060F090F0600001818000070
:10055000001010003040FF0101001F01011E0019B2
:100560001D1712003C3C3C3C000000000000010351
:10057000070F1F3F7F0080C0E0F0F8FCFE00000086
:1005800000240027002A00DB40A4A62EAF2000A1F3
:10059000C8D300408DAED580A800000000250028FB
:1005A000002B0000006000000000000000000000C0
:1005B00000000000E000000000000000000000005B
:1005C000000001E00000000000000000000000004A
:1005D0000001F0000000000000000000000000002A
:1005E00003F0000000000000000000000000000711
:1005F000F00000000000000000000000000007F80C
:10060000000000000000000000000000000FF800E3
:10061000000003C0007E000001E0007F0FF8000032
:100620000003C000FE000001E000FFEFF800000042
:1006300003C000FE000001E000FFFFF8000000031F
:10064000C000F00000000F007FFE7FC0000003C06C
:1006500000F00000000F003FFE7FF83FF1FBCFFCF1
:10066000FEF3BC3DEFE01FFE7FFF7FFBFFDFFEFEE2
:10067000FFBC3DEFE01FC6FFFF7FFBFFDFFEFEFF7D
:10068000BC3DEFE00FE3C7FE787BC3DE1EF0FFBC8E
:100690003DEF0007FF87FC787BC3DE1EF0F83C3D92
:1006A000EF0001FFFFF0007BC3C01EF0F03C3DEF08
:1006B0000001F37FE03FFBC3CFFEF0F03C3DEF00D5
:1006C00003E33F807FFBC3DFFEF0F03C3DEF00071C
:1006D000E73C00787BC3DE1EF0F03C3DEF0007FFF7
:1006E000BE00787BC3DE1EF0F03C3DEF0007FFFE4E
:1006F00000787BC3DE1EF0F03C3DEF000FFFFE00F4
:100700007FFBFFDFFEF0F03FFDEFE00FFFFF007F1C
:10071000FBFFDFFEF0F03FFDEFE00FF9FF003E7959
:10072000F9CF9EF0F01F3DE7E01FF1FF0000000051
:1007300000000000000000001F80FF007FFFFFFF9F
:10074000FFFFFFFFFFFFE01C007F007FFFFFFFFEBA
:10075000B46D888D18E000001F007FFFFFFFFE953D
:10076000AD7DB577E000000F007FFFFFFFFEA5AD78
:100770009D8D19E0000006007FFFFFFFFEB5ADED87
:10078000B57EE000000000000180000000000000D5
:10079000000000038000000000000000000007C00F
:1007A00000000000000000000007C0000000000082
:1007B000000000000FC00000000000000000001F4B
:1007C000E00000000000000000001FE0000000004A
:1007D00000000000003FE0000000000000000000FA
:1007E0003FF00000000000000000007FF00000006B
:1007F000000000001FF87FF0000000000000003F34
:10080000FE7FF0000000000000003FFF7FF00000CE
:1008100000000000001FFFFBE000000000000000DF
:100820000FFFF9FFC00000000000000FFFF9FFF804
:1008300000000000000007FFF1FFFF0000000000C3
:100840000003FC73FFFF80000000000001FE3FFF7B
:10085000FF80000000000000FF1E0FFF00000000EE
:100860000000007FFE1FFC000000000000003FFFB2
:10087000FFF8000000000000000FDFFFE0000000B4
:10088000000000001F19FFC0000000000000003F32
:100890003CFF00000000000000007E7CF80000002B
:1008A00000000000007FFE7C00000000000000004F
:1008B000FFFFFC0000000000000000FFFFFE000042
:1008C000000000000000FFFFFE000000000000002C
:1008D00001FFEFFE0000000000000001FFCFFE005E
:1008E00000000000000003FF07FE00000000000001
:1008F0000003FC07FE0000000000000003F003FE00
:1009000000000000000000018000FE000000000068
:1009100000000000007E0000000000000000000059
:100920003E000000000000000000000C000000007D
:100930000000078000FC000003C0000000078001E9
:10094000FC000003C0000000078001FC000003C0A1
:10095000000000078001E00000001E00000007808A
:1009600001E00000001E007FE3F79FF9FDE7787BC0
:10097000DFC0FFF7FFBFFDFDFF787BDFC0FFF7FFA4
:10098000BFFDFDFF787BDFC0F0F787BC3DE1FF785E
:100990007BDE00F0F787BC3DE1F0787BDE0000F7FE
:1009A00087803DE1E0787BDE007FF7879FFDE1E017
:1009B000787BDE00FFF787BFFDE1E0787BDE00F0AB
:1009C000F787BC3DE1E0787BDE00F0F787BC3DE1D6
:1009D000E0787BDE00F0F787BC3DE1E0787BDE006D
:1009E000FFF7FFBFFDE1E07FFBDFC0FFF7FFBFFDCB
:1009F000E1E07FFBDFC07CF3F39F3DE1E03E7BCF96
:100A0000C00000000000000000000000FFFFFFFF2A
:100A1000FFFFFFFFFFFFC0FFFFFFFFFD68DB111AB5
:100A200031C0FFFFFFFFFD2B5AFB6AEFC0FFFFFF46
:100A3000FFFD4B5B3B1A33C0FFFFFFFFFD6B5BDB32
:100A40006AFDC00000000023002600290004040401
:100A50000404040404020202020202030303030367
:100A60000301020408102040800102040810200144
:100A70000204081020000000080002010000030426
:100A8000070000000000000000004D17EF1B1124BC
:100A90001FBECFEFD8E0DEBFCDBF11E0A0E0B1E0D8
:100AA000EAEAFFE302C005900D92AE38B107D9F72C
:100AB00022E0AEE8B1E001C01D92AE3BB207E1F723
:100AC00015E0C6E4D5E004C02197FE010E94911E06
:100AD000C534D107C9F70E94A8170C94C81F0C94FD
:100AE00000000895809100019091010121E030E023
:100AF000009711F030E020E03093010120930001D5
:100B0000892B29F01092690210926802089581E001
:100B100090E0909369028093680208950895089583
:100B2000AF92BF92CF92DF92EF92FF920F931F93FB
:100B3000CF93DF936C017B018B01040F151FEB0139
:100B40005E01AE18BF08C017D10759F06991D601F0
:100B5000ED91FC910190F081E02DC6010995892B62
:100B600079F7C501DF91CF911F910F91FF90EF9021
:100B7000DF90CF90BF90AF900895833081F028F43C
:100B8000813099F08230A9F008958730A9F088303B
:100B9000C9F08430B1F4809180008F7D03C08091D2
:100BA00080008F7780938000089584B58F7784BD0F
:100BB000089584B58F7DFBCF8091B0008F778093AF
:100BC000B00008958091B0008F7DF9CF1F93CF932F
:100BD000DF93282F30E0F901EB58F54F8491F901AC
:100BE000EF59F54FD491F901E35BF54FC491CC2354
:100BF000A9F0162F81110E94BD05EC2FF0E0EE0F39
:100C0000FF1FE756FA4FA591B4918FB7F894EC9176
:100C1000111108C0D095DE23DC938FBFDF91CF91F7
:100C20001F910895DE2BF8CFCF93DF9390E0FC0166
:100C3000EF59F54F2491835B954FFC0184918823F4
:100C4000D1F090E0880F991FFC01E358FA4FA5916D
:100C5000B491FC01E756FA4FC591D491623071F41A
:100C60009FB7F8943C91822F809583238C93E881E1
:100C70002E2B28839FBFDF91CF9108958FB7F894D3
:100C8000EC912E2B2C938FBFF6CF8E3008F08E5028
:100C90008770806480937C0080917A008064809368
:100CA0007A0080917A0086FDFCCF80917800909147
:100CB000790008953FB7F8948091430290914402DF
:100CC000A0914502B091460226B5A89B05C02F3FD2
:100CD00019F00196A11DB11D3FBFBA2FA92F982F62
:100CE0008827BC01CD01620F711D811D911D42E05D
:100CF000660F771F881F991F4A95D1F708958F9225
:100D00009F92AF92BF92CF92DF92EF92FF924B01F0
:100D10005C010E945A066B017C010E945A066C1904
:100D20007D098E099F09683E734081059105A8F3EE
:100D300021E0821A9108A108B10888EEC80E83E06C
:100D4000D81EE11CF11C81149104A104B10429F7FF
:100D5000FF90EF90DF90CF90BF90AF909F908F90DB
:100D600008950895EF92FF920F931F93CF93DF930F
:100D7000EC01EC80FD806E157F050CF070C057FF14
:100D800004C0240F351F50E040E08E819F81FA019E
:100D9000E20FF31F8E179F071CF49C01241B350BD9
:100DA000121613060CF05BC0922F842F8695869541
:100DB00086958E9DD0018F9DB00D11246A0F7B1FEB
:100DC000AF8DB8A1A60FB71F477049F188E0841B0B
:100DD000482F682F70E0FB01EB58FA4FE491281779
:100DE00008F063C0621B71092FEF30E002C0359537
:100DF00027956A95E2F7E2230130110539F0B0F149
:100E00000230110561F58C91E82702C08C91E82B26
:100E1000EC93941720F12C813D81A20FB31FE92F91
:100E2000E41BE83078F00230110521F58E2F9C91FB
:100E300090959C932C813D81A20FB31F88508830E0
:100E4000B0F7E770EE2359F0F0E0E359FA4FE49180
:100E500001301105F9F010F10230110519F1DF919F
:100E6000CF911F910F91FF90EF900895E0958C9195
:100E7000E823CECF81E00115110509F480E08195CA
:100E80009E2F8C932C813D81A20FB31F98509830D8
:100E9000C0F7D7CF8C91E82BEC93E1CFE0958C9104
:100EA000E823FACF8C91E827F7CF0130110509F438
:100EB000ADCFE0F20230110509F4A5CFAE0DBF1D94
:100EC000AECF0F931F93CF93DF9377FF04C0260F0E
:100ED000371F70E060E0DC011496CD91DC91FB01DE
:100EE000E20FF31FCE17DF071CF49E01261B370B02
:100EF000121613064CF5FA0157FD3796A3E0F59547
:100F0000E795AA95E1F7EC9FD001ED9FB00DFC9F0E
:100F1000B00D11246A0F7B1FDC015F96ED91FC91EF
:100F2000E60FF71F4770552781E090E001C0880F5A
:100F30004A95EAF7482F0130110559F0A8F02E0F15
:100F40003F1F02301105E1F0DF91CF911F910F910A
:100F500008952E0F3F1FE217F307B1F38191DF01D0
:100F60001197842B8C93F7CF80952E0F3F1FE2179C
:100F7000F30751F39191DF01119798239C93F7CFD9
:100F8000E217F30709F38191DF01119784278C930E
:100F9000F7CF0F931F93FA01DC0156964C915697A9
:100FA0004230E9F04330A1F1413061F514964D91A2
:100FB0005C91DA01AE1BBF0BFD01E21BF30B77FD69
:100FC0000BC0DC0116964D915C916417750724F4F3
:100FD000AB01BF010E9461071F910F910895149604
:100FE0004D915C91DA01A61BB70BBD0161507109EF
:100FF000DC0116964D915C91DA01AE1BBF0BFD0131
:10100000E21BF30B77FDE8CFAF010E94B206E4CFFD
:1010100016964D915C91DA01A61BB70BBD0161508C
:101020007109CDCF0F931F93FA01DC0156964C91B5
:1010300056974230A9F0433091F1413019F514969A
:101040004D915C91DA01AE1BBF0BFD013197F7FDAD
:1010500004C0AB01BF010E94B2061F910F91089519
:1010600014964D915C91DA01A61BB70BBD01DC0112
:1010700016964D915C91DA01AE1BBF0BFD013197C5
:10108000621B730BF7FDE9CFDC0116964D915C9165
:10109000E417F50714F7AF010E946107DECF16963B
:1010A0004D915C91DA01A61BB70BBD01621B730B5E
:1010B000CECFFC0177FD64C08085918568177907E4
:1010C0000CF05EC057FD5CC08285938548175907B8
:1010D0000CF056C086898230B1F0833029F181301E
:1010E00041F484819581841B950BAB01BC01615057
:1010F00071092130310509F108F443C0223031056E
:1011000009F463C0089584819581DC01A61BB70BA7
:10111000BD016150710986819781DC01A41BB50B6B
:10112000AD0141505109E5CF86819781861B970B10
:10113000BA01AC0141505109DCCFCA0157FD0796F5
:10114000A3E095958795AA95E1F7A481B5818A9F3B
:1011500090018B9F300D9A9F300D1124620F731FE9
:10116000078CF0A1E02DE60FF71F4770552721E00F
:1011700030E001C0220F4A95EAF78081822B8083FC
:101180000895CA0157FD079633E0959587953A95DE
:10119000E1F7A481B5818A9F90018B9F300D9A9FC2
:1011A000300D1124620F731F078CF0A1E02DE60FA4
:1011B000F71F4770552781E090E001C0880F4A95DE
:1011C000EAF7809590818923DACFCA0157FD079607
:1011D00023E0959587952A95E1F7A481B5818A9FAB
:1011E00090018B9F300D9A9F300D1124620F731F59
:1011F000078CF0A1E02DE60FF71F4770552721E07F
:1012000030E001C0220F4A95EAF780818227B7CFEC
:1012100008958EBD00000DB407FEFDCF8EB5089574
:101220008CBD9DBD08950895FC016370668B84811B
:10123000958126813781613039F0633029F09187BB
:101240008087338722870895318720879387828715
:1012500008952F923F924F925F926F927F928F925A
:101260009F92AF92BF92CF92DF92EF92FF920F9335
:101270001F93CF93DF93CDB7DEB76A970FB6F8947D
:10128000DEBF0FBECDBF9A8F898F7A8369834A01F3
:10129000D22E18870F833701BC2CDC0159962D9173
:1012A0003C915A972115310509F015C118968D9179
:1012B0009C911997681779070CF0D7C11A968D91F0
:1012C0009C91481759070CF0D0C14C2C512CB6E01A
:1012D000CB9E600D711D11247C876B871616170637
:1012E0000CF0C3C1EA2DF0E0FA87E98793E0EE0F36
:1012F000FF1F9A95E1F7F88BEF87CF01840F951FB9
:10130000181619060CF0B1C1A98DBA8D58968C919A
:10131000811104C0BFEABD1508F4D394A98DBA8D1C
:10132000ED91FC9111970284F385E02DCD01099593
:10133000B5E0DB9EC0011124E981FA81FC83EB83D7
:10134000312C212C9C0123593F4F388F2F8B4A2D54
:1013500050E05E8B4D8BEF89F88DE20DF31D4491CB
:101360009E828D82D12CC12C69817A81620D731D80
:101370007A8B698B842F90E09C8B8B8BE98DFA8D17
:10138000A081B18140FF82C0F1E0BF126FC0AF12F7
:101390006DC01C96ED91FC912F813885A4014C0DF8
:1013A0005D1D69897A89898D9A8D0995EB89FC89FA
:1013B000F595E7954E2F5FEFC51AD50A6D817E81B1
:1013C0008D899E89680F791F7E836D8398E0C91689
:1013D000D10481F6AFEF2A1A3A0AEB81FC81E40DC1
:1013E000F51DFC83EB83F5E02F16310409F0B3CF34
:1013F0002F81388526153705B9F0A98DBA8DED9165
:10140000FC91B1E0BB1257C0AB1255C069817A8123
:101410006B5F7F4F0088F189E02D830128E030E089
:10142000A401898D9A8D0995A98DBA8DED91FC91B4
:1014300011970688F789E02DCD016A960FB6F894CA
:10144000DEBF0FBECDBFDF91CF911F910F91FF90F7
:10145000EF90DF90CF90BF90AF909F908F907F9054
:101460006F905F904F903F902F9009941E96ED9152
:10147000FC91EF80F88409851A8592014D815E8187
:101480006B817C81898D9A8D099590CF2F813885CC
:101490002615370509F48ACF31E0B31207C0A3122D
:1014A00005C01C96ED91FC91930178CF1E96ED91AD
:1014B000FC917301E0CF6B857C8564197509068406
:1014C000F785E02D73010F8518899201A401898D9C
:1014D0009A8D0995A9CFF901349694913297459147
:1014E0005491D91AB7E0DB9E400D511D1124F9012A
:1014F000259134913C8B2B8BFA0125903490FA0185
:101500003296749031963491398B3296649031963C
:10151000449041E04C1518F04A1508F07FC0662D44
:10152000062C000C770B7C836B83842D042C000C21
:10153000990B9E838D83A98DBA8DED91FC911197A6
:101540000284F385E02DCD010995512CD12CC12CBD
:10155000EA2DF0E0FA87E9872B2D30E03C872B87D6
:10156000A401440D511D47FC5A95588F4F8B69813A
:101570007A81660D711D67FC7A957E876D87798902
:10158000C71608F051CF2C2D30E04D815E81420FFF
:10159000531FA985BA854A9FC0014B9F900D5A9F42
:1015A000900D1124FC01E80DF91DF88BEF87852DB6
:1015B000612C4F89588D420F531F5E8B4D8B6714E2
:1015C00008F050C044244394480E877041F4C10190
:1015D0000196EB89FC89E20DF31DD4901C01D7FE26
:1015E00019C0A98DBA8DED91FC91662D70E0B1E026
:1015F000BB1219C0AB1217C02D853E85620F731F39
:101600000484F585E02D2F8138854D895E89898D8B
:101610009A8D0995DD0C6394842DD1CF1E821D8295
:101620001C821B8288CF4B815C81640F751FAB8548
:10163000BC856A9FC0016B9F900D7A9F900D11240D
:1016400069817A81680F791F0684F785E02DEF8024
:10165000F88409851A859D014F855889898D9A8D51
:101660000995D8CF570CC3948ACF6A960FB6F894D1
:10167000DEBF0FBECDBFDF91CF911F910F91FF90C5
:10168000EF90DF90CF90BF90AF909F908F907F9022
:101690006F905F904F903F902F9008958F929F9200
:1016A000AF92CF92EF92FF920F931F93CF93DF935E
:1016B000EC01262F898D9A8D009709F051C06A3070
:1016C000D1F41D861C868D8948E0849F90011124E9
:1016D0008E859F85820F931F9F878E8781E090E084
:1016E000DF91CF911F910F91FF90EF90CF90AF902E
:1016F0009F908F9008956D3089F3CC88AD888F8945
:101700008823C1F08C859D8536E0C39E800D911D98
:101710001124488559854817590764F44E855F851B
:101720001D861C8638E0A39EC0011124840F951FDE
:101730009F878E87EA88FB88088919894E855F858F
:101740006C857D85CE010E9429092C898C859D851B
:1017500046E0249F800D911D11249D878C87BECF6C
:101760006A3069F41D861C86FC013896E4912D8947
:101770008E859F85E29F800D911D1124ADCF6D3028
:1017800009F4ACCFFC0134963491631708F4A6CF6A
:101790003296E491E61708F4A1CFFC0132968590C9
:1017A0009490462F431B342F47E0349F800C911CAC
:1017B0001124F401329634913196E4913323A9F146
:1017C000EE2399F1CC88F4013596E491AD884F89E8
:1017D000442301F10E2E000CFF0BE30FF11DCE9EF2
:1017E000A001CF9E500D11246C857D85460F571F9B
:1017F00068857985641775076CF44E855F851D864D
:101800001C86FC013896E491AE9E400D511D1124BA
:101810005F874E87EA88FB88088919894E855F852E
:101820006C857D85CE010E942909F4013496E491EE
:101830002C898C859D85E29F800D911D11248DCF73
:101840006F927F928F929F92AF92BF92CF92DF92D0
:10185000EF92FF920F931F93CF93DF93EC016B01F5
:101860005A0139014801E881F9810284F385E02DAC
:101870000995E881F9810288F389E02D87019301B8
:10188000A501B601CE010995A501480D591D41508C
:101890005109E881F9810288F389E02D9301B601AD
:1018A000CE010995E881F9810088F189E02D940144
:1018B000A501B601CE010995C60CD71CB601615031
:1018C0007109E881F9810088F189E02D9401A50171
:1018D000CE010995E881F9810688F789E02DCE01CE
:1018E000DF91CF911F910F91FF90EF90DF90CF90FC
:1018F000BF90AF909F908F907F906F9009946F9260
:101900007F928F929F92AF92BF92CF92DF92EF928F
:10191000FF920F931F93CF93DF935C01EB016A015A
:10192000490138018701DC01ED91FC9162177307D1
:1019300019F5641675062CF0962D872D3A01C92EDF
:10194000D82E9601261937092F5F3F4F048CF58D4D
:10195000E02DA301BE01C5010995DF91CF911F9133
:101960000F91FF90EF90DF90CF90BF90AF909F903E
:101970008F907F906F9008954615570591F4261724
:10198000370724F0892D4B01C22FD82F9E0128192B
:1019900039092F5F3F4F068CF78DE02DA601B4016A
:1019A000DACF0284F385E02D0995D501ED91FC9104
:1019B0000488F589E02D83019401A601BE01C501CB
:1019C0000995D501ED91FC910688F789E02DC501B7
:1019D000DF91CF911F910F91FF90EF90DF90CF900B
:1019E000BF90AF909F908F907F906F900994EF92EF
:1019F000FF920F931F93DC011A960D911C911B9778
:101A000018962D913C911997ED91FC9100A0F1A1B0
:101A1000E02D7B0150E040E070E060E009951F910F
:101A20000F91FF90EF9008954F925F926F927F9287
:101A30008F929F92AF92BF92CF92DF92EF92FF92DE
:101A40000F931F93CF93DF936C012B015A01390140
:101A50004801DC01ED91FC910284F385E02D0995AC
:101A6000E201640C751CD601ED91FC91C615D705F9
:101A70005CF40088F189E02D87019401A501BE0185
:101A8000C60109952196EFCF0688F789E02DC6019A
:101A9000DF91CF911F910F91FF90EF90DF90CF904A
:101AA000BF90AF909F908F907F906F905F904F907E
:101AB00009948F929F92AF92BF92CF92DF92EF9252
:101AC000FF920F931F93CF93DF93EC015B014A01C9
:101AD0006901E881F9810284F385E02D099595017A
:101AE0002C0D3D1D21503109E881F9810488F589CB
:101AF000E02D78018401A401B501CE010995E881AA
:101B0000F9810688F789E02DCE01DF91CF911F91F1
:101B10000F91FF90EF90DF90CF90BF90AF909F908C
:101B20008F9009948F929F92AF92BF92CF92DF9243
:101B3000EF92FF920F931F93CF93DF93EC015B0122
:101B40004A0169017801E881F9810284F385E02D79
:101B50000995C80CD91C860101501109E881F98149
:101B60000488F589E02D9501A401B501CE01099500
:101B7000E881F9810688F789E02DCE01DF91CF91C8
:101B80001F910F91FF90EF90DF90CF90BF90AF909B
:101B90009F908F900994EF92FF920F931F93DC0117
:101BA000ED91FC9100A0F1A1E02D09951F910F91FD
:101BB000FF90EF9008950F931F93DC01ED91FC913E
:101BC000068CF78DE02D09951F910F9108950F93C5
:101BD0001F93DC01ED91FC91048CF58DE02D0995AE
:101BE0001F910F910895DC01ED91FC910084F18526
:101BF000E02D09943F924F925F926F927F928F9265
:101C00009F92AF92BF92CF92DF92EF92FF920F938B
:101C10001F93CF93DF935C017B014A016901390176
:101C200087E0680E711C93E0759467949A95E1F7CC
:101C30002B01400E511E10E000E0312CD0E0C0E03E
:101C4000CE0187709927330C892B59F4FE0183E06C
:101C5000F595E7958A95E1F7E00FF11FE80DF91D7D
:101C6000349037FE0AC021E030E0A701B5016C0FC7
:101C70007D1F8AE792E00E94F30D2196CC16DD06C7
:101C8000F9F68FEFE81AF80A060D171DE414F504AB
:101C9000A9F6DF91CF911F910F91FF90EF90DF9008
:101CA000CF90BF90AF909F908F907F906F905F90FC
:101CB0004F903F9008952F923F924F925F926F9274
:101CC0007F928F929F92AF92BF92CF92DF92EF92CC
:101CD000FF920F931F93CF93DF9300D000D000D0DB
:101CE000CDB7DEB73C016A013E832D83FC82EB82D7
:101CF0005801A41AB50AB7FE03C0B194A194B10863
:101D00008D809E80861A970A97FE03C091948194D5
:101D100091088A149B045CF0902F812F0D811E8105
:101D20009D838E839C2D8D2D6B01692F782F0C1533
:101D30001D055CF09D818E817E836D83692F782FD8
:101D4000902F812F8601C92ED82E1601201A310A14
:101D50002B012D813E81421A530A57FE03C0519434
:101D600041945108710137FE03C03FEFE31AF30AB3
:101D7000F594E7948D819E81861797075CF5A1E025
:101D8000B0E0BA83A983C016D1064CF1D301ED911E
:101D9000FC910484F585E02D2B813C81A8016D81A7
:101DA0007E818A149B041CF04D815E81B801C301C1
:101DB0000995E418F508F7FE0AC02D813E81898156
:101DC0009A81280F391F3E832D83E20CF31C0F5F8D
:101DD0001F4FD9CF2FEF3FEF3A832983D4CF2696D9
:101DE0000FB6F894DEBF0FBECDBFDF91CF911F912C
:101DF0000F91FF90EF90DF90CF90BF90AF909F90AA
:101E00008F907F906F905F904F903F902F900895AC
:101E100008952091F401260F3327331F2132310515
:101E2000ECF420911802FC0190E080E0243069F08D
:101E300082E00895A091F4012191AC014C525E4FD3
:101E4000A40FB52FB11D2C930196861798F380919E
:101E5000F401680F6093F40180E0089581E0089533
:101E60001092180281E080931A021092190261E028
:101E700082E10E94E60561E083E10E94E605E9EB6C
:101E8000F0E080818E7F808380818D7F808388E4F5
:101E90008093B80085E48093BC000895CF93DF93CE
:101EA00091E09093D3018823B9F0C091B800D0910C
:101EB000BA008091BC008A7B8093BC0060E082E124
:101EC0000E94E60560E083E10E94E6050E94300F73
:101ED000D093BA00C093B800DF91CF910895E091FC
:101EE0004D0280914C02E81730F4F0E0E255FE4FCD
:101EF000808190E008958FEF9FEF089590914D02BB
:101F000080914C022FEF3FEF981748F4E92FF0E053
:101F1000E255FE4F208130E09F5F90934D02C90152
:101F2000089580914C0290914D02891B990B089560
:101F3000CF92DF92EF92FF920F931F93CF93DF9395
:101F40007C01CB018A0120916D02222389F0EB01F3
:101F50006B01C40ED51ECC15DD0569F06991D70162
:101F6000ED91FC910190F081E02DC7010995F3CF2F
:101F7000642F0E94090FC801DF91CF911F910F912B
:101F8000FF90EF90DF90CF900895CF93DF931F9253
:101F9000CDB7DEB7698320916D022223F9F020913D
:101FA0006A02203258F021E030E0FC0133832283C2
:101FB00090E080E00F90DF91CF91089580916B02C7
:101FC000E82FF0E0E257FE4F998190838F5F809376
:101FD0006B0280936A0281E090E0ECCF61E0CE0179
:101FE00001960E94090FF7CFCF92DF92EF92FF92F6
:101FF0000F931F93CF93DF93D0916A0281E0D13288
:1020000008F09CC0C0916C020E945A066B017C01D2
:102010008091180281116CC082E08093180281E0E7
:1020200080931A028FEF8093170210923C02D09394
:102030003B02AEE8B1E0EBE1F2E080E0D8138DC006
:1020400010923D0280913D02CC0FC82BC0933D02FF
:1020500080911902813009F084C0109219020E9407
:102060005A066B017C0180913D028093BB008091F8
:10207000CF019091D001A091D101B091D201892BD3
:102080008A2B8B2BA1F00E945A060091CF01109150
:10209000D0012091D1013091D2016C197D098E09B6
:1020A0009F09061717072807390708F442C08091CF
:1020B000BC0083FDD8CF85EC8093BC000E945A06FB
:1020C0006B017C0180911802823009F44CC0809130
:1020D00017028F3F09F469C080911702803209F41A
:1020E00066C080911702803309F463C084E026C083
:1020F0008091CF019091D001A091D101B091D201F6
:10210000892B8A2B8B2B09F483CF0E945A060091CE
:10211000CF011091D0012091D1013091D2016C19E1
:102120007D098E099F09061717072807390708F048
:102130006FCF8091CE010E944E0F85E010926B020E
:1021400010926A0210926D02DF91CF911F910F9150
:10215000FF90EF90DF90CF9008959D9191938F5FC6
:102160006DCF85EEA9CF8091CF019091D001A09144
:10217000D101B091D201892B8A2B8B2B09F4A2CFEC
:102180000E945A060091CF011091D0012091D101F7
:102190003091D2016C197D098E099F090617170726
:1021A0002807390708F08ECFC4CF80E0C7CF82E080
:1021B000C5CF83E0C3CFEF92FF920F931F93CF93CE
:1021C000DF937C01C62F809197029091980200972F
:1021D00009F459C020919B0231E030936D022093A5
:1021E0006C0210926B0210926A02DC01ED91FC917C
:1021F0000190F081E02D60E009958701EE24E394E1
:10220000F12CD1E0C1508091970290919802CF3F7C
:1022100091F1B0E2EB16F104D8F00E94F40F809136
:1022200097029091980220919B02D0936D02209387
:102230006C0210926B0210926A02DC01ED91FC912B
:102240000190F081E02D60E00995EE24E394F12CFB
:102250008091970290919802F8016491DC01ED91D0
:10226000FC910190F081E02D0995BFEFEB1AFB0A7C
:102270000F5F1F4FC7CFDF91CF911F910F91FF903D
:10228000EF900C94F40FE091A702F091A8029081D6
:102290008091AD028095892380838701C15008F425
:1022A00038C0F80184912091950230919602232B39
:1022B00029F00E9409090F5F1F4FF0CF28E030E09E
:1022C00040E8E091A302F091A4029091AB02582F54
:1022D0005423D9F05081952B9083E091A502F09181
:1022E000A60290815091AC02952B9083E091A502BB
:1022F000F091A60250819091AC0290959523908325
:10230000469521503109E9F6D6CF50819095952315
:10231000E3CFDF91CF911F910F91FF90EF90089540
:102320001F93CF93DF93EC018D8D9E8D009721F14C
:10233000162F29A131E030936D0220936C02109288
:102340006B0210926A02DC01ED91FC910190F08128
:10235000E02D60E009958D8D9E8DDC01ED91FC9165
:102360000190F081E02D612F09958D8D9E8DDF917B
:10237000CF911F910C94F40FADA5BEA59C918BA994
:10238000809589238C938B8D9C8D892B31F0862FA2
:10239000DF91CF911F910C94090928E030E080E88B
:1023A000A9A5BAA599A9462F4823C1F04C91942B11
:1023B0009C93ABA5BCA59C914AA9942B9C93ABA5DF
:1023C000BCA54C919AA9909594239C9386952150F5
:1023D000310931F7DF91CF911F9108954C9190957C
:1023E0009423E6CF1F93CF93DF93EC01162F8D8DAF
:1023F0009E8D892BB1F12DA93EA94FA958AD60E062
:1024000074E284EF90E00E941D1C205131094109C3
:10241000510956954795379527952093B80066EA58
:10242000111167EACE010E9490118D8D9E8D892B2E
:1024300041F129AD3AAD4BAD5CAD60E074E284EFA3
:1024400090E00E941D1C2051310941095109569507
:102450004795379527952093B800DF91CF911F912D
:1024600008958B8D9C8D892B21F08EAD9FAD0E94A0
:102470001009EFA5F8A990818CA980958923808304
:10248000CECFEFA5F8A980819CA9892B8083E5CFC9
:1024900090E080E008952091800230918102C9018E
:1024A000079697FD079623E0959587952A95E1F77E
:1024B00020917E0230917F02829FA001839F500D68
:1024C000929F500D112470E060E0809199029091EC
:1024D0009A020C94C11FFC0101900020E9F731978A
:1024E000AF01481B590BBC018AE792E00C949005A0
:1024F0008F929F92AF92BF920F931F93CF93DF93D0
:10250000CDB7DEB7A1970FB6F894DEBF0FBECDBF33
:1025100019A2423008F44AE08E010F5D1F4F842E4D
:10252000912CB12CA12CA50194010E941D1CE62F19
:10253000B901CA01EA30F4F4E05DD801EE938D01EF
:10254000232B242B252B79F790E080E0109719F0AE
:10255000CD010E946B12A1960FB6F894DEBF0FBE9C
:10256000CDBFDF91CF911F910F91BF90AF909F9002
:102570008F900895E95CE1CF4F925F926F927F92C6
:102580008F929F92AF92BF92CF92DF92EF92FF9283
:102590000F931F93CF936B017C01742EAC019B01B1
:1025A0000E94851E882399F08AE491E0CF911F91C3
:1025B0000F91FF90EF90DF90CF90BF90AF909F90E2
:1025C0008F907F906F905F904F900C946B124601AC
:1025D0005701E894B7F82FEF3FEF4FE75FE7C501EA
:1025E000B4010E94851E81110DC02FEF3FEF4FE710
:1025F0005FE7C501B4010E94BB1C18161CF48EE4F1
:1026000091E0D4CF2FEF3FEF4FE75FE4C701B60172
:102610000E94131E18161CF482E591E0C7CF2FEF1D
:102620003FEF4FE75FECC701B6010E94BB1C87FD7F
:10263000F3CF20E030E0A901C701B6010E94BB1C26
:1026400010E000E087FF0AC06DE28AE792E00E9496
:102650004E0B8C01F7FAF094F7F8F094C0E060E0CC
:1026600070E080E09FE37C1641F020E030E040E243
:1026700051E40E94C01CCF5FF6CFA70196010E94D3
:102680004F1C2B013C010E94321D4B015C014AE0B2
:102690000E9478127C01E00EF11ECC23C1F1C5012D
:1026A000B4010E94611D9B01AC01C301B2010E94F3
:1026B0004E1C4B015C016EE28AE792E00E944E0BD9
:1026C000E80EF91EC15018F120E030E040E251E47C
:1026D000C501B4010E94181E2B013C010E94321D4D
:1026E0004B01B12CA12C4AE0C501B4010E94781223
:1026F000E80EF91EC501B4010E94611D9B01AC01E9
:10270000C301B2010E944E1C4B015C01DBCFC7012B
:10271000CF911F910F91FF90EF90DF90CF90BF90DE
:10272000AF909F908F907F906F905F904F900895A3
:10273000CF92DF92EF92FF920F931F93CF93DF938D
:102740000E944B1281E080938E0280938F02109240
:102750008B0210928A02C1E0D0E0D0938D02C09328
:102760008C02109287021092860276E0C72ED12C3E
:10277000D0928902C092880286E591E00E946B1295
:10278000D0938D02C0938C02D0938B02C0938A02A7
:10279000EE24E394F12C00E110E02EE730E040E17C
:1027A00050E070E060E08AE792E00E947F0CC2E0B7
:1027B000D0E0D0938702C093860284E190E09093AA
:1027C0008902809388028CE691E00E946B126091EE
:1027D000620270916302809164029091650242E00E
:1027E0000E94BC128BE791E00E946B12D09387028B
:1027F000C093860280E290E09093890280938802E1
:102800008EE791E00E946B1260915E0270915F0210
:10281000809160029091610242E00E94BC128BE7BD
:1028200091E00E946B1282E080938E0280938F026F
:10283000D0928702C09286028EE290E09093890245
:1028400080938802609156027091570280915802DD
:102850009091590241E00E94BC128BE791E00E94E6
:102860006B128091970290919802892B09F498C07D
:102870002091AF023091B0024091B1025091B2026A
:1028800060E074E284EF90E00E941D1C2051310949
:102890004109510956954795379527952093B800DA
:1028A00065E088E690E00E94DB1060917E02615056
:1028B0008AE792E00E94901120918002309181027B
:1028C000C901079697FD079633E0959587953A9548
:1028D000E1F720917E0230917F02829F8001839FE9
:1028E000100D929F100D1124C0919902D0919A025F
:1028F00080919702909198020C0F1D1F009709F488
:1029000090C020919B0231E030936D0220936C02C5
:1029100010926B0210926A02DC01ED91FC91019021
:10292000F081E02D60E40995EE24E394F12CDD24A0
:10293000D39480919702909198020C171D0709F487
:1029400046C0B0E2EB16F104D8F00E94F40F80917B
:1029500097029091980220919B02D0926D02209351
:102960006C0210926B0210926A02DC01ED91FC91F4
:102970000190F081E02D60E40995EE24E394F12CC0
:1029800080919702909198026991DC01ED91FC9100
:102990000190F081E02D0995BFEFEB1AFB0AC9CF3A
:1029A0008091950290919602892B31F08091B80226
:1029B0009091B9020E941009E091A902F091AA0237
:1029C00090818091AE0280958923808369CF0E9497
:1029D000F40F8091970290919802892B09F462C0BC
:1029E0002091B3023091B4024091B5025091B602E9
:1029F00060E074E284EF90E00E941D1C20513109D8
:102A00004109510956954795379527952093B80068
:102A1000DF91CF911F910F91FF90EF90DF90CF90BA
:102A20000895E091A702F091A80280819091AD02F3
:102A3000892B80830C171D0761F2899120919502E3
:102A400030919602232B19F00E940909F3CF28E058
:102A500030E040E8E091A302F091A4029091AB0233
:102A6000582F5423D9F05081952B9083E091A502E3
:102A7000F091A60290815091AC02952B9083E09149
:102A8000A502F091A60250819091AC0290959523F9
:102A90009083469521503109E9F6CCCF508190952D
:102AA0009523E3CFE091A902F091AA028081909151
:102AB000AE02892B8083ACCF0E94BC1F85ED809332
:102AC000BC008091CF019091D001A091D101B09133
:102AD000D2010796A11DB11D23E0B695A795979544
:102AE00087952A95D1F72091BC0024FD03C0109250
:102AF000180208954091CF015091D0016091D10109
:102B00007091D201452B462B472B69F30097A10505
:102B1000B10541F025E32A95F1F700000197A109DD
:102B2000B109E1CF8091CE010C944E0F1F920F920C
:102B30000FB60F9211242F933F938F939F93AF93D0
:102B4000BF9380913F0290914002A0914102B091C9
:102B5000420230913E0223E0230F2D3758F50196B3
:102B6000A11DB11D20933E0280933F02909340022D
:102B7000A0934102B093420280914302909144029B
:102B8000A0914502B09146020196A11DB11D80930E
:102B9000430290934402A0934502B0934602BF9132
:102BA000AF919F918F913F912F910F900FBE0F90FA
:102BB0001F90189526E8230F0296A11DB11DD2CFB4
:102BC0001F920F920FB60F9211242F933F934F93A2
:102BD0005F936F937F938F939F93AF93BF93EF9385
:102BE000FF93E0910401F09105010995FF91EF91A8
:102BF000BF91AF919F918F917F916F915F914F9115
:102C00003F912F910F900FBE0F901F9018951F921C
:102C10000F920FB60F9211242F933F934F935F9310
:102C20006F937F938F939F93AF93BF93EF93FF9394
:102C3000E0910201F09103010995FF91EF91BF919D
:102C4000AF919F918F917F916F915F914F913F9144
:102C50002F910F900FBE0F901F9018951F920F92FB
:102C60000FB60F9211242F933F934F935F936F935F
:102C70007F938F939F93AF93BF93EF93FF93809135
:102C8000B900887F803609F44AC0F0F5883209F42B
:102C9000A7C018F5803109F49BC0B8F4882309F463
:102CA000F9C0883009F494C0FF91EF91BF91AF91C2
:102CB0009F918F917F916F915F914F913F912F9154
:102CC0000F900FBE0F901F901895883109F488C09F
:102CD000803251F78093170214C0803409F49DC0EC
:102CE00040F48033B9F38833F9F68093170285EC0A
:102CF000B0C0803509F485C0883509F496C08834A1
:102D000099F60E945E15D0CF883909F48CC038F549
:102D1000883729F050F4883611F0803729F683E09F
:102D2000809318021092160257C0883809F47BC0AD
:102D3000803919F0803809F0B7CF809116028032BF
:102D400008F071C0E091160281E08E0F80931602A8
:102D50008091BB00F0E0EA50FE4F80833DC0803B95
:102D600039F0E0F4803A09F479C0883A09F09CCF50
:102D700084E0809318021092F5011092F401E09122
:102D80004A02F0914B0209958091F40181110FC024
:102D900081E08093F4011092D40109C0803C09F4D1
:102DA000A6CF883C09F4A3CF883B09F07DCFE09102
:102DB000F50181E08E0F8093F501F0E0EC52FE4FBB
:102DC00080818093BB009091F5018091F40129C02E
:102DD00080913D028093BB0085EC8093BC0064CF62
:102DE00090913C0280913B02981758F5E0913C028B
:102DF00081E08E0F80933C02F0E0E55EFD4F808124
:102E0000E9CFE0913C0281E08E0F80933C028091FB
:102E1000BB00F0E0E55EFD4F808390913C02809125
:102E20003B029817C8F285E8D8CFE0913C0281E0D8
:102E30008E0F80933C028091BB00F0E0E55EFD4F79
:102E4000808380911A0281115CCF81E08093190206
:102E500084EA8093BC001092180226CF85EC809300
:102E6000BC001092180280911602803230F4E0917A
:102E70001602F0E0EA50FE4F10826091160270E0F8
:102E8000E0914802F091490286EF91E00995109295
:102E900016020ACF1092170234CFAEE6B2E01396B4
:102EA0001C921E92129748EE53E060E070E0149678
:102EB0004D935D936D937C93179780E191E011960C
:102EC0009C938E93EAE7F2E01382128220E830E0CE
:102ED0003583248380E490E097838683318720873D
:102EE00093878287168A158614861786168681E050
:102EF000858B848B2FEF3FEF338B228B318B208B95
:102F0000878B108E128E118E82E291E091838083E6
:102F1000148E138EB68FA58F10A2178E8FEF84A3F9
:102F200085A386A387A380A780E89AE1A6E0B0E006
:102F300085AB96ABA7ABB0AF80EA96E8A1E0B0E076
:102F400081AF92AFA3AFB4AF80E586AF17AE08955F
:102F5000789484B5826084BD84B5816084BD85B574
:102F6000826085BD85B5816085BD80916E00816080
:102F700080936E0010928100809181008260809326
:102F80008100809181008160809381008091800028
:102F90008160809380008091B10084608093B10053
:102FA0008091B00081608093B00080917A0084604D
:102FB00080937A0080917A00826080937A00809179
:102FC0007A00816080937A0080917A008068809393
:102FD0007A001092C10062E082E00E94140662E072
:102FE00084E00E94140661E08DE00E94140661E016
:102FF00088E00E94140661E089E00E94140661E006
:103000008AE00E94140661E08BE00E941406809121
:10301000990290919A02892B11F5209180023091AA
:103020008102C901079697FD0796B3E095958795AC
:10303000BA95E1F720917E0230917F02AC01429F68
:10304000C001439F900D529F900D11240E94971E26
:1030500090939A0280939902892B09F4C5C20E9429
:103060004B12209180023091810280917E029091DA
:103070007F02B901213231050CF4ADC160547109F0
:1030800077FF02C06F5F7F4F7595679582559109F5
:1030900097FD019600E410E022E530E043E857E0B8
:1030A000959587950E94FA0D82E080939C0280910D
:1030B000970290919802892B09F4A0C18CE3809328
:1030C0009B0210924D0210924C0210926B021092D1
:1030D0006A020E94300F8EE895E090934B02809335
:1030E0004A028FE895E090934902809348028091CC
:1030F000A20287FD1EC061E00E94140661E080917B
:10310000A2020E94E60561E070E080E090E00E948B
:103110007F0660E08091A2020E94E6056AE070E00E
:1031200080E090E00E947F0661E08091A2020E9410
:10313000E6058091970290919802892B09F41DC2AF
:103140002091AF023091B0024091B1025091B20291
:1031500060E074E284EF90E00E941D1C2051310970
:103160004109510956954795379527952093B80001
:1031700064E085E995E00E94DB1060918002615077
:103180008AE792E00E94901164E081E995E00E9454
:10319000DB1080919C0264E1813009F460E18AE7F0
:1031A00092E00E94901164E08DE895E00E94DB10AF
:1031B0008FE88093B70280917E0290917F028038E1
:1031C000910509F0F3C180918002909181028034D1
:1031D000910509F0FBC180919C02813009F4E4C1A2
:1031E0008FEC8093B702C2E16AED8AE792E00E9419
:1031F00090116C2F8AE792E00E94901161E88AE7B3
:1032000092E00E9490116091B7028AE792E00E94DA
:10321000901169ED8AE792E00E94901180919C02E2
:1032200061EF813009F462E28AE792E00E94901136
:1032300066E087E895E00E94DB108091970290910C
:103240009802892B09F4C6C12091B3023091B402CF
:103250004091B5025091B60260E074E284EF90E0D4
:103260000E941D1C2051310941095109569547956D
:10327000379527952093B80081E0809392020E94B1
:103280004B1282E795E090930301809302018091B5
:103290006900836080936900E89A10926902109235
:1032A000680288248A9493E0992EA12CB12C29E7F6
:1032B000622E2AE0722E35E6C32E3AE0D32E41E587
:1032C000E42E4AE0F42E00E010E080916802909134
:1032D0006902892B09F089C1109267021092660277
:1032E00081E10E94450624E630E0DC010E948A1E4E
:1032F000A50194010E94FE1BCA01B9010E94631D31
:1033000020E030E048EC52E40E94C01C609362026E
:103310007093630280936402909365029B01AC01F9
:103320000E944F1C23EC35EF48E450E40E94181E25
:1033300060935E0270935F028093600290936102DB
:1033400020E030E040E85EE30E94181E60935A02DD
:1033500070935B0280935C0290935D020E949813CD
:1033600061E08DE00E94E60568EC70E080E090E0AE
:103370000E947F0660E08DE00E94E60562E370E057
:1033800080E090E00E947F06F3018491F601C491F1
:10339000F701D491DD2309F498CF81110E94BD0576
:1033A000ED2FF0E0EE0FFF1FED5BF54FA591B4910F
:1033B0008C91C82309F489CF10926702109266029B
:1033C000109256021092570210925802109259020F
:1033D0000E9498137ACF6052710977FF02C06F5F25
:1033E0007F4F759567958357910997FD019600E288
:1033F00010E023E730E043EA55E052CE61E08091EF
:10340000A0020E94140661E08091A1020E941406AD
:103410008091A002082E000C990BFC01E35BF54F94
:10342000E491F0E0EE0FFF1FE756FA4F259134913B
:103430003093A8022093A702FC01EF59F54FE491C5
:10344000E093AD028091A102082E000C990BFC01C3
:10345000E35BF54FE491F0E0EE0FFF1FE756FA4F04
:10346000A591B491B093AA02A093A902FC01EF59CF
:10347000F54FE491E093AE028C91E82BEC938091B0
:10348000950290919602892B09F434C0CFB7F89435
:1034900080914702811127C0E7E5FAE08491EBE6CD
:1034A000FAE09491E82FF0E0EE0FFF1FE358FA4F97
:1034B000A591B491EC91E92321F461E08AE00E94A6
:1034C000E60561E08AE00E9414068CB580618CBD3F
:1034D0008CB580648CBD61E08DE00E94140661E0D3
:1034E0008BE00E941406809147028F5F8093470211
:1034F000CFBFFDCD61E080919E020E94140661E085
:1035000080919F020E94140680919E02082E000C5A
:10351000990BFC01E35BF54FE491F0E0EE0FFF1F28
:10352000E756FA4F259134913093A4022093A302D9
:10353000FC01EF59F54FE491E093AB0280919F02BB
:10354000082E000C990BFC01E35BF54FE491F0E0D1
:10355000EE0FFF1FE756FA4FA591B491B093A60264
:10356000A093A502FC01EF59F54FE491E093AC0262
:103570008C91E095E823EC93BACD809195029091DF
:103580009602892B31F08091B8029091B9020E9485
:103590001009E091A902F091AA0290818091AE02F7
:1035A000809589238083E4CD8FE91BCE80369105F9
:1035B00069F48091800290918102409739F4809162
:1035C0009C02813029F08FEA8093B702C2E00CCED2
:1035D00080E1FACFE091A902F091AA028081909156
:1035E000AE02892B808348CEFFCF8FE00E94450634
:1035F000EC01909367028093660261E088E00E948C
:10360000E605D0935502C0935402CE0101978F3D39
:10361000910558F360E088E00E94E605809152022F
:10362000909153028C179D07D4F420915A02309147
:103630005B0240915C0250915D0260915602709174
:10364000570280915802909159020E944F1C60933A
:1036500056027093570280935802909359020E9429
:1036600098138FE00E944506EC01909367028093C7
:10367000660261E089E00E94E605D0935102C093A2
:103680005002CE01825E91098D31914050F360E08D
:1036900089E00E94E60580915402909155028C17B2
:1036A0009D07D4F420915A0230915B0240915C0254
:1036B00050915D02609156027091570280915802BC
:1036C000909159020E944F1C6093560270935702CA
:1036D00080935802909359020E9498138FE00E94A1
:1036E0004506EC01909367028093660261E08AE0F0
:1036F0000E94E605D0934F02C0934E02CE01815046
:1037000092408E3F910550F360E08AE00E94E6050A
:1037100080915002909151028C179D07D4F4209112
:103720005A0230915B0240915C0250915D026091BF
:1037300056027091570280915802909159020E944E
:103740004F1C6093560270935702809358029093D7
:1037500059020E9498138FE00E944506EC01909355
:1037600067028093660261E08BE00E94E605D093D9
:103770005302C0935202CE01815093408E3F910577
:1037800050F360E08BE00E94E60580914E0290913C
:103790004F02C817D907D4F420915A0230915B0226
:1037A00040915C0250915D02609156027091570207
:1037B00080915802909159020E944F1C60935602CA
:1037C0007093570280935802909359020E94981365
:1037D0000115110509F479CD0E94000076CD82E231
:1037E00091E090937B0280937A028091990290916C
:1037F0009A02009711F00C94331F0895052E97FB41
:103800001EF400940E94151C57FD07D00E941D1C39
:1038100007FC03D04EF40C94151C50954095309540
:1038200021953F4F4F4F5F4F08959095809570952C
:1038300061957F4F8F4F9F4F0895A1E21A2EAA1BCB
:10384000BB1BFD010DC0AA1FBB1FEE1FFF1FA21750
:10385000B307E407F50720F0A21BB30BE40BF50B4D
:10386000661F771F881F991F1A9469F760957095D6
:10387000809590959B01AC01BD01CF010895A29F59
:10388000B001B39FC001A39F700D811D1124911D34
:10389000B29F700D811D1124911D08955058BB27B2
:1038A000AA270E94661C0C94D91D0E94CB1D38F0DB
:1038B0000E94D21D20F039F49F3F19F426F40C9495
:1038C000C81D0EF4E095E7FB0C94C21DE92F0E9481
:1038D000EA1D58F3BA17620773078407950720F0AB
:1038E00079F4A6F50C940C1E0EF4E0950B2EBA2F6D
:1038F000A02D0B01B90190010C01CA01A0011124F6
:10390000FF27591B99F0593F50F4503E68F11A16A1
:10391000F040A22F232F342F4427585FF3CF469532
:1039200037952795A795F0405395C9F77EF41F1654
:10393000BA0B620B730B840BBAF09150A1F0FF0F1E
:10394000BB1F661F771F881FC2F70EC0BA0F621F0A
:10395000731F841F48F4879577956795B795F795FA
:103960009E3F08F0B0CF9395880F08F09927EE0F8F
:103970009795879508950E949E1D08F481E008950B
:103980000E94D41C0C94D91D0E94D21D58F00E9494
:10399000CB1D40F029F45F3F29F00C94C21D51115A
:1039A0000C940D1E0C94C81D0E94EA1D68F3992307
:1039B000B1F3552391F3951B550BBB27AA2762172B
:1039C0007307840738F09F5F5F4F220F331F441F38
:1039D000AA1FA9F335D00E2E3AF0E0E832D091506C
:1039E0005040E695001CCAF72BD0FE2F29D0660F59
:1039F000771F881FBB1F261737074807AB07B0E89C
:103A000009F0BB0B802DBF01FF2793585F4F3AF0A1
:103A10009E3F510578F00C94C21D0C940D1E5F3F23
:103A2000E4F3983ED4F3869577956795B795F79527
:103A30009F5FC9F7880F911D9695879597F908950F
:103A4000E1E0660F771F881FBB1F621773078407AB
:103A5000BA0720F0621B730B840BBA0BEE1F88F7BA
:103A6000E09508950E94F21D88F09F5798F0B92FB5
:103A70009927B751B0F0E1F0660F771F881F991FA3
:103A80001AF0BA95C9F714C0B13091F00E940C1E1B
:103A9000B1E008950C940C1E672F782F8827B85F2B
:103AA00039F0B93FCCF3869577956795B395D9F7FB
:103AB0003EF490958095709561957F4F8F4F9F4F05
:103AC0000895E89409C097FB3EF490958095709511
:103AD00061957F4F8F4F9F4F9923A9F0F92F96E95A
:103AE000BB279395F695879577956795B795F111CF
:103AF000F8CFFAF4BB0F11F460FF1BC06F5F7F4F6C
:103B00008F4F9F4F16C0882311F096E911C077237D
:103B100021F09EE8872F762F05C0662371F096E886
:103B2000862F70E060E02AF09A95660F771F881F55
:103B3000DAF7880F9695879597F90895990F0008F9
:103B4000550FAA0BE0E8FEEF16161706E807F9076F
:103B5000C0F012161306E407F50798F0621B730B0A
:103B6000840B950B39F40A2661F0232B242B252B8B
:103B700021F408950A2609F4A140A6958FEF811D2E
:103B8000811D089597F99F6780E870E060E00895CF
:103B90009FEF80EC089500240A9416161706180665
:103BA0000906089500240A94121613061406050641
:103BB0000895092E0394000C11F4882352F0BB0FD2
:103BC00040F4BF2B11F460FF04C06F5F7F4F8F4F35
:103BD0009F4F089557FD9058440F551F59F05F3F70
:103BE00071F04795880F97FB991F61F09F3F79F01F
:103BF00087950895121613061406551FF2CF4695A1
:103C0000F1DF08C0161617061806991FF1CF869522
:103C10007105610508940895E894BB276627772706
:103C2000CB0197F908950E949E1D08F48FEF089527
:103C30000E942B1E0C94D91D0E94CB1D38F00E94AF
:103C4000D21D20F0952311F00C94C21D0C94C81DB8
:103C500011240C940D1E0E94EA1D70F3959FC1F370
:103C6000950F50E0551F629FF001729FBB27F00D2A
:103C7000B11D639FAA27F00DB11DAA1F649F66277F
:103C8000B00DA11D661F829F2227B00DA11D621FCE
:103C9000739FB00DA11D621F839FA00D611D221F88
:103CA000749F3327A00D611D231F849F600D211D6C
:103CB000822F762F6A2F11249F5750409AF0F1F0EF
:103CC00088234AF0EE0FFF1FBB1F661F771F881F58
:103CD00091505040A9F79E3F510580F00C94C21DB1
:103CE0000C940D1E5F3FE4F3983ED4F386957795D0
:103CF0006795B795F795E7959F5FC1F7FE2B880FFE
:103D0000911D9695879597F908950E949E1D880BA1
:103D1000990B08950E943F1CB7FF0895821B930BD7
:103D20000895EE0FFF1F0590F491E02D09940F9375
:103D30001F93CF93DF938230910510F482E090E0DF
:103D4000E091BC02F091BD0230E020E0B0E0A0E0E4
:103D5000309799F42115310509F44AC0281B390B15
:103D600024303105D8F58A819B816115710589F16F
:103D7000FB0193838283FE0111C040815181028146
:103D8000138148175907E0F04817590799F410971D
:103D900061F012960C93129713961C933296CF01F2
:103DA000DF91CF911F910F9108950093BC02109362
:103DB000BD02F4CF2115310551F04217530738F0F9
:103DC000A901DB019A01BD01DF01F801C1CFEF01BB
:103DD000F9CF9093BD028093BC02CDCFFE01E20FDC
:103DE000F31F819391932250310939832883D7CFD0
:103DF0002091BA023091BB02232B41F4209108019B
:103E0000309109013093BB022093BA022091060140
:103E1000309107012115310541F42DB73EB740918E
:103E20000A0150910B01241B350BE091BA02F0916D
:103E3000BB02E217F307A0F42E1B3F0B281739072C
:103E400078F0AC014E5F5F4F2417350748F04E0FF6
:103E50005F1F5093BB024093BA02819391939FCF0F
:103E6000F0E0E0E09CCFCF93DF930097E9F0FC0116
:103E7000329713821282A091BC02B091BD02ED0173
:103E800030E020E01097A1F420813181820F931F50
:103E90002091BA023091BB022817390709F061C09E
:103EA000F093BB02E093BA02DF91CF910895EA014B
:103EB000CE17DF07E8F54A815B819E014115510568
:103EC000B1F7E901FB83EA8349915991C40FD51FEA
:103ED000EC17FD0761F4808191810296840F951F94
:103EE000E90199838883828193819B838A83F0E0AF
:103EF000E0E012968D919C9113970097B9F52D9162
:103F00003C911197CD010296820F931F2091BA0226
:103F10003091BB022817390739F6309751F51092C6
:103F2000BD021092BC02B093BB02A093BA02BCCFF8
:103F3000D383C28340815181840F951FC817D9074D
:103F400061F44E5F5F4F88819981480F591F5183FB
:103F500040838A819B81938382832115310509F0F7
:103F6000B0CFF093BD02E093BC029ECFFD01DC0117
:103F7000C0CF13821282D7CF81E090E0F8940C94E6
:103F8000C81FDC0101C06D9341505040E0F7089517
:103F900015E0C6E4D5E004C0FE010E94911E219602
:0A3FA000C734D107C9F7F894FFCF2A
:103FAA000100B106B1060000BE0280000000000058
:103FBA00C50F980F48127105910F7E0F6F0F000001
:103FCA0000004E0B90054812080F59087105F30DB1
:103FDA00CB0DE70DDB0D5B0E71051409F211C90754
:103FEA001208140DF70C7F0C200C6E616E00696EBE
:103FFA0066006F766600204C4F4E47204449535462
:10400A00414E4345204D4541532E200057484545D2
:10401A004C205241444955533A2000206D004349EF
:0E402A005243554D464552454E2E3A20000059
:00000001FF
